{
  "contractName": "CBAI",
  "abi": [
    {
      "inputs": [
        {
          "internalType": "string",
          "name": "uri",
          "type": "string"
        }
      ],
      "stateMutability": "nonpayable",
      "type": "constructor"
    },
    {
      "anonymous": false,
      "inputs": [
        {
          "indexed": true,
          "internalType": "address",
          "name": "owner",
          "type": "address"
        },
        {
          "indexed": true,
          "internalType": "address",
          "name": "approved",
          "type": "address"
        },
        {
          "indexed": true,
          "internalType": "uint256",
          "name": "tokenId",
          "type": "uint256"
        }
      ],
      "name": "Approval",
      "type": "event"
    },
    {
      "anonymous": false,
      "inputs": [
        {
          "indexed": true,
          "internalType": "address",
          "name": "owner",
          "type": "address"
        },
        {
          "indexed": true,
          "internalType": "address",
          "name": "operator",
          "type": "address"
        },
        {
          "indexed": false,
          "internalType": "bool",
          "name": "approved",
          "type": "bool"
        }
      ],
      "name": "ApprovalForAll",
      "type": "event"
    },
    {
      "anonymous": false,
      "inputs": [
        {
          "indexed": true,
          "internalType": "address",
          "name": "previousOwner",
          "type": "address"
        },
        {
          "indexed": true,
          "internalType": "address",
          "name": "newOwner",
          "type": "address"
        }
      ],
      "name": "OwnershipTransferred",
      "type": "event"
    },
    {
      "anonymous": false,
      "inputs": [
        {
          "indexed": true,
          "internalType": "address",
          "name": "from",
          "type": "address"
        },
        {
          "indexed": true,
          "internalType": "address",
          "name": "to",
          "type": "address"
        },
        {
          "indexed": true,
          "internalType": "uint256",
          "name": "tokenId",
          "type": "uint256"
        }
      ],
      "name": "Transfer",
      "type": "event"
    },
    {
      "inputs": [
        {
          "internalType": "address",
          "name": "to",
          "type": "address"
        },
        {
          "internalType": "uint256",
          "name": "tokenId",
          "type": "uint256"
        }
      ],
      "name": "approve",
      "outputs": [],
      "stateMutability": "nonpayable",
      "type": "function"
    },
    {
      "inputs": [
        {
          "internalType": "address",
          "name": "owner",
          "type": "address"
        }
      ],
      "name": "balanceOf",
      "outputs": [
        {
          "internalType": "uint256",
          "name": "",
          "type": "uint256"
        }
      ],
      "stateMutability": "view",
      "type": "function",
      "constant": true
    },
    {
      "inputs": [],
      "name": "baseExtension",
      "outputs": [
        {
          "internalType": "string",
          "name": "",
          "type": "string"
        }
      ],
      "stateMutability": "view",
      "type": "function",
      "constant": true
    },
    {
      "inputs": [
        {
          "internalType": "uint256",
          "name": "tokenId",
          "type": "uint256"
        }
      ],
      "name": "getApproved",
      "outputs": [
        {
          "internalType": "address",
          "name": "",
          "type": "address"
        }
      ],
      "stateMutability": "view",
      "type": "function",
      "constant": true
    },
    {
      "inputs": [
        {
          "internalType": "address",
          "name": "owner",
          "type": "address"
        },
        {
          "internalType": "address",
          "name": "operator",
          "type": "address"
        }
      ],
      "name": "isApprovedForAll",
      "outputs": [
        {
          "internalType": "bool",
          "name": "",
          "type": "bool"
        }
      ],
      "stateMutability": "view",
      "type": "function",
      "constant": true
    },
    {
      "inputs": [],
      "name": "name",
      "outputs": [
        {
          "internalType": "string",
          "name": "",
          "type": "string"
        }
      ],
      "stateMutability": "view",
      "type": "function",
      "constant": true
    },
    {
      "inputs": [],
      "name": "owner",
      "outputs": [
        {
          "internalType": "address",
          "name": "",
          "type": "address"
        }
      ],
      "stateMutability": "view",
      "type": "function",
      "constant": true
    },
    {
      "inputs": [
        {
          "internalType": "uint256",
          "name": "tokenId",
          "type": "uint256"
        }
      ],
      "name": "ownerOf",
      "outputs": [
        {
          "internalType": "address",
          "name": "",
          "type": "address"
        }
      ],
      "stateMutability": "view",
      "type": "function",
      "constant": true
    },
    {
      "inputs": [],
      "name": "renounceOwnership",
      "outputs": [],
      "stateMutability": "nonpayable",
      "type": "function"
    },
    {
      "inputs": [
        {
          "internalType": "address",
          "name": "from",
          "type": "address"
        },
        {
          "internalType": "address",
          "name": "to",
          "type": "address"
        },
        {
          "internalType": "uint256",
          "name": "tokenId",
          "type": "uint256"
        }
      ],
      "name": "safeTransferFrom",
      "outputs": [],
      "stateMutability": "nonpayable",
      "type": "function"
    },
    {
      "inputs": [
        {
          "internalType": "address",
          "name": "from",
          "type": "address"
        },
        {
          "internalType": "address",
          "name": "to",
          "type": "address"
        },
        {
          "internalType": "uint256",
          "name": "tokenId",
          "type": "uint256"
        },
        {
          "internalType": "bytes",
          "name": "data",
          "type": "bytes"
        }
      ],
      "name": "safeTransferFrom",
      "outputs": [],
      "stateMutability": "nonpayable",
      "type": "function"
    },
    {
      "inputs": [
        {
          "internalType": "address",
          "name": "operator",
          "type": "address"
        },
        {
          "internalType": "bool",
          "name": "approved",
          "type": "bool"
        }
      ],
      "name": "setApprovalForAll",
      "outputs": [],
      "stateMutability": "nonpayable",
      "type": "function"
    },
    {
      "inputs": [
        {
          "internalType": "bytes4",
          "name": "interfaceId",
          "type": "bytes4"
        }
      ],
      "name": "supportsInterface",
      "outputs": [
        {
          "internalType": "bool",
          "name": "",
          "type": "bool"
        }
      ],
      "stateMutability": "view",
      "type": "function",
      "constant": true
    },
    {
      "inputs": [],
      "name": "symbol",
      "outputs": [
        {
          "internalType": "string",
          "name": "",
          "type": "string"
        }
      ],
      "stateMutability": "view",
      "type": "function",
      "constant": true
    },
    {
      "inputs": [
        {
          "internalType": "address",
          "name": "from",
          "type": "address"
        },
        {
          "internalType": "address",
          "name": "to",
          "type": "address"
        },
        {
          "internalType": "uint256",
          "name": "tokenId",
          "type": "uint256"
        }
      ],
      "name": "transferFrom",
      "outputs": [],
      "stateMutability": "nonpayable",
      "type": "function"
    },
    {
      "inputs": [
        {
          "internalType": "address",
          "name": "newOwner",
          "type": "address"
        }
      ],
      "name": "transferOwnership",
      "outputs": [],
      "stateMutability": "nonpayable",
      "type": "function"
    },
    {
      "inputs": [
        {
          "internalType": "uint256",
          "name": "amount",
          "type": "uint256"
        }
      ],
      "name": "mint",
      "outputs": [],
      "stateMutability": "payable",
      "type": "function",
      "payable": true
    },
    {
      "inputs": [
        {
          "internalType": "uint256",
          "name": "amount",
          "type": "uint256"
        }
      ],
      "name": "whitelistMint",
      "outputs": [],
      "stateMutability": "payable",
      "type": "function",
      "payable": true
    },
    {
      "inputs": [],
      "name": "getTotalSupply",
      "outputs": [
        {
          "internalType": "uint256",
          "name": "supply",
          "type": "uint256"
        }
      ],
      "stateMutability": "view",
      "type": "function",
      "constant": true
    },
    {
      "inputs": [],
      "name": "getCurrentSupply",
      "outputs": [
        {
          "internalType": "uint256",
          "name": "supply",
          "type": "uint256"
        }
      ],
      "stateMutability": "view",
      "type": "function",
      "constant": true
    },
    {
      "inputs": [
        {
          "internalType": "uint256",
          "name": "tokenId",
          "type": "uint256"
        }
      ],
      "name": "tokenURI",
      "outputs": [
        {
          "internalType": "string",
          "name": "",
          "type": "string"
        }
      ],
      "stateMutability": "view",
      "type": "function",
      "constant": true
    },
    {
      "inputs": [
        {
          "internalType": "string",
          "name": "_newBaseURI",
          "type": "string"
        }
      ],
      "name": "setBaseURI",
      "outputs": [],
      "stateMutability": "nonpayable",
      "type": "function"
    },
    {
      "inputs": [
        {
          "internalType": "uint256",
          "name": "newNFTCost",
          "type": "uint256"
        }
      ],
      "name": "setNFTCost",
      "outputs": [],
      "stateMutability": "nonpayable",
      "type": "function"
    },
    {
      "inputs": [],
      "name": "getBaseURI",
      "outputs": [
        {
          "internalType": "string",
          "name": "",
          "type": "string"
        }
      ],
      "stateMutability": "view",
      "type": "function",
      "constant": true
    },
    {
      "inputs": [],
      "name": "getNFTCost",
      "outputs": [
        {
          "internalType": "uint256",
          "name": "",
          "type": "uint256"
        }
      ],
      "stateMutability": "view",
      "type": "function",
      "constant": true
    },
    {
      "inputs": [],
      "name": "getPublicSaleIsActive",
      "outputs": [
        {
          "internalType": "bool",
          "name": "",
          "type": "bool"
        }
      ],
      "stateMutability": "view",
      "type": "function",
      "constant": true
    },
    {
      "inputs": [
        {
          "internalType": "string",
          "name": "_newBaseExtension",
          "type": "string"
        }
      ],
      "name": "setBaseExtension",
      "outputs": [],
      "stateMutability": "nonpayable",
      "type": "function"
    },
    {
      "inputs": [
        {
          "internalType": "address[]",
          "name": "addresses",
          "type": "address[]"
        }
      ],
      "name": "batchAddToWhitelist",
      "outputs": [],
      "stateMutability": "nonpayable",
      "type": "function"
    },
    {
      "inputs": [
        {
          "internalType": "address",
          "name": "newAddress",
          "type": "address"
        }
      ],
      "name": "singleAddToWhitelist",
      "outputs": [],
      "stateMutability": "nonpayable",
      "type": "function"
    },
    {
      "inputs": [
        {
          "internalType": "address[]",
          "name": "addresses",
          "type": "address[]"
        }
      ],
      "name": "batchRemoveFromWhitelist",
      "outputs": [],
      "stateMutability": "nonpayable",
      "type": "function"
    },
    {
      "inputs": [
        {
          "internalType": "address",
          "name": "addressToRemove",
          "type": "address"
        }
      ],
      "name": "singleRemoveFromWhitelist",
      "outputs": [],
      "stateMutability": "nonpayable",
      "type": "function"
    },
    {
      "inputs": [
        {
          "internalType": "address[]",
          "name": "addresses",
          "type": "address[]"
        }
      ],
      "name": "batchAddToBlacklist",
      "outputs": [],
      "stateMutability": "nonpayable",
      "type": "function"
    },
    {
      "inputs": [
        {
          "internalType": "address",
          "name": "newAddress",
          "type": "address"
        }
      ],
      "name": "singleAddToBlacklist",
      "outputs": [],
      "stateMutability": "nonpayable",
      "type": "function"
    },
    {
      "inputs": [
        {
          "internalType": "address[]",
          "name": "addresses",
          "type": "address[]"
        }
      ],
      "name": "batchRemoveFromBlacklist",
      "outputs": [],
      "stateMutability": "nonpayable",
      "type": "function"
    },
    {
      "inputs": [
        {
          "internalType": "address",
          "name": "addressToRemove",
          "type": "address"
        }
      ],
      "name": "singleRemoveFromBlacklist",
      "outputs": [],
      "stateMutability": "nonpayable",
      "type": "function"
    },
    {
      "inputs": [
        {
          "internalType": "uint16",
          "name": "newMaxSupply",
          "type": "uint16"
        }
      ],
      "name": "adminIncreaseMaxSupply",
      "outputs": [],
      "stateMutability": "nonpayable",
      "type": "function"
    },
    {
      "inputs": [
        {
          "internalType": "bool",
          "name": "saleState",
          "type": "bool"
        }
      ],
      "name": "adminManageSaleState",
      "outputs": [],
      "stateMutability": "nonpayable",
      "type": "function"
    },
    {
      "inputs": [
        {
          "internalType": "bool",
          "name": "whitelistState",
          "type": "bool"
        }
      ],
      "name": "adminManageWhitelistState",
      "outputs": [],
      "stateMutability": "nonpayable",
      "type": "function"
    },
    {
      "inputs": [],
      "name": "withdraw",
      "outputs": [],
      "stateMutability": "payable",
      "type": "function",
      "payable": true
    }
  ],
  "bytecode": "0x60c06040526005608081905264173539b7b760d91b60a0908152620000289160099190620001e8565b50600f805461ffff191690553480156200004157600080fd5b50604051620029be380380620029be83398101604081905262000064916200028e565b6040805180820182526004808252634342414960e01b602080840182815285518087019096529285528401528151919291620000a391600091620001e8565b508051620000b9906001906020840190620001e8565b505050620000d6620000d06200010e60201b60201c565b62000112565b6001600755612710600a556000600b5566038d7ea4c68000600c55600f805461ffff19169055620001078162000164565b50620003b7565b3390565b600680546001600160a01b038381166001600160a01b0319831681179093556040519116919082907f8be0079c531659141344cd1fd0a4f28419497f9722a3daafe3b4186f6b6457e090600090a35050565b6200016e62000187565b805162000183906008906020840190620001e8565b5050565b6006546001600160a01b03163314620001e65760405162461bcd60e51b815260206004820181905260248201527f4f776e61626c653a2063616c6c6572206973206e6f7420746865206f776e6572604482015260640160405180910390fd5b565b828054620001f69062000364565b90600052602060002090601f0160209004810192826200021a576000855562000265565b82601f106200023557805160ff191683800117855562000265565b8280016001018555821562000265579182015b828111156200026557825182559160200191906001019062000248565b506200027392915062000277565b5090565b5b8082111562000273576000815560010162000278565b60006020808385031215620002a1578182fd5b82516001600160401b0380821115620002b8578384fd5b818501915085601f830112620002cc578384fd5b815181811115620002e157620002e1620003a1565b604051601f8201601f19908116603f011681019083821181831017156200030c576200030c620003a1565b81604052828152888684870101111562000324578687fd5b8693505b8284101562000347578484018601518185018701529285019262000328565b828411156200035857868684830101525b98975050505050505050565b6002810460018216806200037957607f821691505b602082108114156200039b57634e487b7160e01b600052602260045260246000fd5b50919050565b634e487b7160e01b600052604160045260246000fd5b6125f780620003c76000396000f3fe6080604052600436106102305760003560e01c8063715018a61161012e578063b88d4fde116100ab578063da3ef23f1161006f578063da3ef23f1461062f578063da6cdfbf1461064f578063e985e9c514610667578063f2fde38b146106b0578063f63fd50c146106d057610230565b8063b88d4fde146105a5578063c4e41b22146105c5578063c6682862146105da578063c87b56dd146105ef578063d71626571461060f57610230565b806395d89b41116100f257806395d89b411461051d57806395eb3e4814610532578063a0712d6814610552578063a22cb46514610565578063b6e455521461058557610230565b8063715018a6146104a257806379c501a4146104b7578063868ff4a2146104cc57806389f7abfc146104df5780638da5cb5b146104ff57610230565b80632a06d686116101bc57806355f804b31161018057806355f804b31461040d5780636352211e1461042d578063679d665f1461044d57806370a082311461046d578063714c53981461048d57610230565b80632a06d686146103865780632db6fa36146103a65780633ccfd60b146103c657806342842e0e146103ce5780634f3e1efc146103ee57610230565b8063095ea7b311610203578063095ea7b3146102e657806310afeeae1461030657806321f448821461032657806323b872dd146103465780632546df361461036657610230565b806301ffc9a714610235578063045fb8881461026a57806306fdde031461028c578063081812fc146102ae575b600080fd5b34801561024157600080fd5b5061025561025036600461208d565b6106f0565b60405190151581526020015b60405180910390f35b34801561027657600080fd5b5061028a610285366004611fc5565b610744565b005b34801561029857600080fd5b506102a16107d1565b6040516102619190612270565b3480156102ba57600080fd5b506102ce6102c936600461212d565b610863565b6040516001600160a01b039091168152602001610261565b3480156102f257600080fd5b5061028a610301366004611f9c565b61088a565b34801561031257600080fd5b5061028a610321366004611e73565b6109a5565b34801561033257600080fd5b5061028a610341366004611e73565b6109ca565b34801561035257600080fd5b5061028a610361366004611ebf565b6109fe565b34801561037257600080fd5b5061028a610381366004612073565b610a2f565b34801561039257600080fd5b5061028a6103a136600461210b565b610a51565b3480156103b257600080fd5b5061028a6103c1366004611fc5565b610a62565b61028a610adb565b3480156103da57600080fd5b5061028a6103e9366004611ebf565b610b69565b3480156103fa57600080fd5b50600b545b604051908152602001610261565b34801561041957600080fd5b5061028a6104283660046120c5565b610b84565b34801561043957600080fd5b506102ce61044836600461212d565b610b9f565b34801561045957600080fd5b5061028a610468366004611fc5565b610bff565b34801561047957600080fd5b506103ff610488366004611e73565b610c78565b34801561049957600080fd5b506102a1610cfe565b3480156104ae57600080fd5b5061028a610d0d565b3480156104c357600080fd5b50600c546103ff565b61028a6104da36600461212d565b610d1f565b3480156104eb57600080fd5b5061028a6104fa366004612073565b610f4e565b34801561050b57600080fd5b506006546001600160a01b03166102ce565b34801561052957600080fd5b506102a1610f69565b34801561053e57600080fd5b5061028a61054d36600461212d565b610f78565b61028a61056036600461212d565b610f85565b34801561057157600080fd5b5061028a610580366004611f73565b61111d565b34801561059157600080fd5b5061028a6105a0366004611e73565b611128565b3480156105b157600080fd5b5061028a6105c0366004611efa565b61114d565b3480156105d157600080fd5b50600a546103ff565b3480156105e657600080fd5b506102a1611185565b3480156105fb57600080fd5b506102a161060a36600461212d565b611213565b34801561061b57600080fd5b5061028a61062a366004611fc5565b6112f1565b34801561063b57600080fd5b5061028a61064a3660046120c5565b61137a565b34801561065b57600080fd5b50600f5460ff16610255565b34801561067357600080fd5b50610255610682366004611e8d565b6001600160a01b03918216600090815260056020908152604080832093909416825291909152205460ff1690565b3480156106bc57600080fd5b5061028a6106cb366004611e73565b611395565b3480156106dc57600080fd5b5061028a6106eb366004611e73565b61140e565b60006001600160e01b031982166380ac58cd60e01b148061072157506001600160e01b03198216635b5e139f60e01b145b8061073c57506301ffc9a760e01b6001600160e01b03198316145b90505b919050565b61074c61143a565b60005b81518110156107cd57600d600083838151811061077c57634e487b7160e01b600052603260045260246000fd5b60200260200101516001600160a01b03166001600160a01b0316815260200190815260200160002060008154809291906107b590612512565b919050555080806107c590612564565b91505061074f565b5050565b6060600080546107e090612529565b80601f016020809104026020016040519081016040528092919081815260200182805461080c90612529565b80156108595780601f1061082e57610100808354040283529160200191610859565b820191906000526020600020905b81548152906001019060200180831161083c57829003601f168201915b5050505050905090565b600061086e82611494565b506000908152600460205260409020546001600160a01b031690565b600061089582610b9f565b9050806001600160a01b0316836001600160a01b031614156109085760405162461bcd60e51b815260206004820152602160248201527f4552433732313a20617070726f76616c20746f2063757272656e74206f776e656044820152603960f91b60648201526084015b60405180910390fd5b336001600160a01b038216148061092457506109248133610682565b6109965760405162461bcd60e51b815260206004820152603d60248201527f4552433732313a20617070726f76652063616c6c6572206973206e6f7420746f60448201527f6b656e206f776e6572206f7220617070726f76656420666f7220616c6c00000060648201526084016108ff565b6109a083836114f3565b505050565b6109ad61143a565b6001600160a01b03166000908152600d6020526040902060019055565b6109d261143a565b6001600160a01b0381166000908152600d602052604081208054916109f683612512565b919050555050565b610a083382611561565b610a245760405162461bcd60e51b81526004016108ff90612283565b6109a08383836115e0565b610a3761143a565b600f80549115156101000261ff0019909216919091179055565b610a5961143a565b61ffff16600a55565b610a6a61143a565b60005b81518110156107cd576001600d6000848481518110610a9c57634e487b7160e01b600052603260045260246000fd5b60200260200101516001600160a01b03166001600160a01b03168152602001908152602001600020819055508080610ad390612564565b915050610a6d565b610ae361143a565b610aeb611744565b6000610aff6006546001600160a01b031690565b6001600160a01b03164760405160006040518083038185875af1925050503d8060008114610b49576040519150601f19603f3d011682016040523d82523d6000602084013e610b4e565b606091505b5050905080610b5c57600080fd5b50610b676001600755565b565b6109a08383836040518060200160405280600081525061114d565b610b8c61143a565b80516107cd906008906020840190611d5b565b6000818152600260205260408120546001600160a01b03168061073c5760405162461bcd60e51b8152602060048201526018602482015277115490cdcc8c4e881a5b9d985b1a59081d1bdad95b88125160421b60448201526064016108ff565b610c0761143a565b60005b81518110156107cd576001600e6000848481518110610c3957634e487b7160e01b600052603260045260246000fd5b60200260200101516001600160a01b03166001600160a01b03168152602001908152602001600020819055508080610c7090612564565b915050610c0a565b60006001600160a01b038216610ce25760405162461bcd60e51b815260206004820152602960248201527f4552433732313a2061646472657373207a65726f206973206e6f7420612076616044820152683634b21037bbb732b960b91b60648201526084016108ff565b506001600160a01b031660009081526003602052604090205490565b6060600880546107e090612529565b610d1561143a565b610b67600061179e565b33610d6c5760405162461bcd60e51b815260206004820152601c60248201527f4552433732314d696e743a20494e56414c49445f414444524553532e0000000060448201526064016108ff565b336000908152600d6020526040902054610dee5760405162461bcd60e51b815260206004820152603e60248201527f594f5520415245204e4f5420494e205448452057484954454c495354204f522060448201527f414c5245414459204d494e5420544845204d4158494d554d20534c4f5453000060648201526084016108ff565b80600b54610dfc91906124af565b600a541015610e1d5760405162461bcd60e51b81526004016108ff90612367565b600a811115610e3e5760405162461bcd60e51b81526004016108ff906123ef565b336000908152600e6020526040902054600111610e6d5760405162461bcd60e51b81526004016108ff9061243b565b600f54610100900460ff16610ec45760405162461bcd60e51b815260206004820152601760248201527f57484954454c495354204953204e4f542041435449564500000000000000000060448201526064016108ff565b6006546001600160a01b03163314610f035780600c54610ee491906124c7565b341015610f035760405162461bcd60e51b81526004016108ff906123a9565b60005b818110156107cd57610f2633600b546001610f2191906124af565b6117f0565b600b8054906000610f3683612564565b91905055508080610f4690612564565b915050610f06565b610f5661143a565b600f805460ff1916911515919091179055565b6060600180546107e090612529565b610f8061143a565b600c55565b33610fd25760405162461bcd60e51b815260206004820152601c60248201527f4552433732314d696e743a20494e56414c49445f414444524553532e0000000060448201526064016108ff565b80600b54610fe091906124af565b600a5410156110015760405162461bcd60e51b81526004016108ff90612367565b600a8111156110225760405162461bcd60e51b81526004016108ff906123ef565b336000908152600e60205260409020546001116110515760405162461bcd60e51b81526004016108ff9061243b565b600f5460ff166110985760405162461bcd60e51b815260206004820152601260248201527153414c45204953204e4f542041435449564560701b60448201526064016108ff565b6006546001600160a01b031633146110d75780600c546110b891906124c7565b3410156110d75760405162461bcd60e51b81526004016108ff906123a9565b60005b818110156107cd576110f533600b546001610f2191906124af565b600b805490600061110583612564565b9190505550808061111590612564565b9150506110da565b6107cd33838361180a565b61113061143a565b6001600160a01b03166000908152600e6020526040902060019055565b6111573383611561565b6111735760405162461bcd60e51b81526004016108ff90612283565b61117f848484846118d9565b50505050565b6009805461119290612529565b80601f01602080910402602001604051908101604052809291908181526020018280546111be90612529565b801561120b5780601f106111e05761010080835404028352916020019161120b565b820191906000526020600020905b8154815290600101906020018083116111ee57829003601f168201915b505050505081565b6000818152600260205260409020546060906001600160a01b03166112925760405162461bcd60e51b815260206004820152602f60248201527f4552433732314d657461646174613a2055524920717565727920666f72206e6f60448201526e3732bc34b9ba32b73a103a37b5b2b760891b60648201526084016108ff565b600061129c610cfe565b905060008151116112bc57604051806020016040528060008152506112ea565b806112c68461190c565b60096040516020016112da93929190612171565b6040516020818303038152906040525b9392505050565b6112f961143a565b60005b81518110156107cd57600e600083838151811061132957634e487b7160e01b600052603260045260246000fd5b60200260200101516001600160a01b03166001600160a01b03168152602001908152602001600020600081548092919061136290612512565b9190505550808061137290612564565b9150506112fc565b61138261143a565b80516107cd906009906020840190611d5b565b61139d61143a565b6001600160a01b0381166114025760405162461bcd60e51b815260206004820152602660248201527f4f776e61626c653a206e6577206f776e657220697320746865207a65726f206160448201526564647265737360d01b60648201526084016108ff565b61140b8161179e565b50565b61141661143a565b6001600160a01b0381166000908152600e602052604081208054916109f683612512565b6006546001600160a01b03163314610b675760405162461bcd60e51b815260206004820181905260248201527f4f776e61626c653a2063616c6c6572206973206e6f7420746865206f776e657260448201526064016108ff565b6000818152600260205260409020546001600160a01b031661140b5760405162461bcd60e51b8152602060048201526018602482015277115490cdcc8c4e881a5b9d985b1a59081d1bdad95b88125160421b60448201526064016108ff565b600081815260046020526040902080546001600160a01b0319166001600160a01b038416908117909155819061152882610b9f565b6001600160a01b03167f8c5be1e5ebec7d5bd14f71427d1e84f3dd0314c0f7b2291e5b200ac8c7c3b92560405160405180910390a45050565b60008061156d83610b9f565b9050806001600160a01b0316846001600160a01b031614806115b457506001600160a01b0380821660009081526005602090815260408083209388168352929052205460ff165b806115d85750836001600160a01b03166115cd84610863565b6001600160a01b0316145b949350505050565b826001600160a01b03166115f382610b9f565b6001600160a01b0316146116195760405162461bcd60e51b81526004016108ff90612322565b6001600160a01b03821661167b5760405162461bcd60e51b8152602060048201526024808201527f4552433732313a207472616e7366657220746f20746865207a65726f206164646044820152637265737360e01b60648201526084016108ff565b826001600160a01b031661168e82610b9f565b6001600160a01b0316146116b45760405162461bcd60e51b81526004016108ff90612322565b600081815260046020908152604080832080546001600160a01b03199081169091556001600160a01b0387811680865260038552838620805460001901905590871680865283862080546001019055868652600290945282852080549092168417909155905184937fddf252ad1be2c89b69c2b068fc378daa952ba7f163c4a11628f55a4df523b3ef91a46109a0565b600260075414156117975760405162461bcd60e51b815260206004820152601f60248201527f5265656e7472616e637947756172643a207265656e7472616e742063616c6c0060448201526064016108ff565b6002600755565b600680546001600160a01b038381166001600160a01b0319831681179093556040519116919082907f8be0079c531659141344cd1fd0a4f28419497f9722a3daafe3b4186f6b6457e090600090a35050565b6107cd8282604051806020016040528060008152506119b7565b816001600160a01b0316836001600160a01b0316141561186c5760405162461bcd60e51b815260206004820152601960248201527f4552433732313a20617070726f766520746f2063616c6c65720000000000000060448201526064016108ff565b6001600160a01b03838116600081815260056020908152604080832094871680845294825291829020805460ff191686151590811790915591519182527f17307eab39ab6107e8899845ad3d59bd9653f200f220920489ca2b5937696c31910160405180910390a3505050565b6118e48484846115e0565b6118f0848484846119ea565b61117f5760405162461bcd60e51b81526004016108ff906122d0565b6060600061191983611af7565b600101905060008167ffffffffffffffff81111561194757634e487b7160e01b600052604160045260246000fd5b6040519080825280601f01601f191660200182016040528015611971576020820181803683370190505b5090508181016020015b600019016f181899199a1a9b1b9c1cb0b131b232b360811b600a86061a8153600a85049450846119aa576119af565b61197b565b509392505050565b6119c18383611bcf565b6119ce60008484846119ea565b6109a05760405162461bcd60e51b81526004016108ff906122d0565b60006001600160a01b0384163b15611aec57604051630a85bd0160e11b81526001600160a01b0385169063150b7a0290611a2e903390899088908890600401612233565b602060405180830381600087803b158015611a4857600080fd5b505af1925050508015611a78575060408051601f3d908101601f19168201909252611a75918101906120a9565b60015b611ad2573d808015611aa6576040519150601f19603f3d011682016040523d82523d6000602084013e611aab565b606091505b508051611aca5760405162461bcd60e51b81526004016108ff906122d0565b805181602001fd5b6001600160e01b031916630a85bd0160e11b1490506115d8565b506001949350505050565b60008072184f03e93ff9f4daa797ed6e38ed64bf6a1f0160401b8310611b365772184f03e93ff9f4daa797ed6e38ed64bf6a1f0160401b830492506040015b6d04ee2d6d415b85acef81000000008310611b62576d04ee2d6d415b85acef8100000000830492506020015b662386f26fc100008310611b8057662386f26fc10000830492506010015b6305f5e1008310611b98576305f5e100830492506008015b6127108310611bac57612710830492506004015b60648310611bbe576064830492506002015b600a831061073c5760010192915050565b6001600160a01b038216611c255760405162461bcd60e51b815260206004820181905260248201527f4552433732313a206d696e7420746f20746865207a65726f206164647265737360448201526064016108ff565b6000818152600260205260409020546001600160a01b031615611c8a5760405162461bcd60e51b815260206004820152601c60248201527f4552433732313a20746f6b656e20616c7265616479206d696e7465640000000060448201526064016108ff565b6000818152600260205260409020546001600160a01b031615611cef5760405162461bcd60e51b815260206004820152601c60248201527f4552433732313a20746f6b656e20616c7265616479206d696e7465640000000060448201526064016108ff565b6001600160a01b038216600081815260036020908152604080832080546001019055848352600290915280822080546001600160a01b0319168417905551839291907fddf252ad1be2c89b69c2b068fc378daa952ba7f163c4a11628f55a4df523b3ef908290a46107cd565b828054611d6790612529565b90600052602060002090601f016020900481019282611d895760008555611dcf565b82601f10611da257805160ff1916838001178555611dcf565b82800160010185558215611dcf579182015b82811115611dcf578251825591602001919060010190611db4565b50611ddb929150611ddf565b5090565b5b80821115611ddb5760008155600101611de0565b600067ffffffffffffffff831115611e0e57611e0e612595565b611e21601f8401601f191660200161247e565b9050828152838383011115611e3557600080fd5b828260208301376000602084830101529392505050565b80356001600160a01b038116811461073f57600080fd5b8035801515811461073f57600080fd5b600060208284031215611e84578081fd5b6112ea82611e4c565b60008060408385031215611e9f578081fd5b611ea883611e4c565b9150611eb660208401611e4c565b90509250929050565b600080600060608486031215611ed3578081fd5b611edc84611e4c565b9250611eea60208501611e4c565b9150604084013590509250925092565b60008060008060808587031215611f0f578081fd5b611f1885611e4c565b9350611f2660208601611e4c565b925060408501359150606085013567ffffffffffffffff811115611f48578182fd5b8501601f81018713611f58578182fd5b611f6787823560208401611df4565b91505092959194509250565b60008060408385031215611f85578182fd5b611f8e83611e4c565b9150611eb660208401611e63565b60008060408385031215611fae578182fd5b611fb783611e4c565b946020939093013593505050565b60006020808385031215611fd7578182fd5b823567ffffffffffffffff80821115611fee578384fd5b818501915085601f830112612001578384fd5b81358181111561201357612013612595565b838102915061202384830161247e565b8181528481019084860184860187018a101561203d578788fd5b8795505b838610156120665761205281611e4c565b835260019590950194918601918601612041565b5098975050505050505050565b600060208284031215612084578081fd5b6112ea82611e63565b60006020828403121561209e578081fd5b81356112ea816125ab565b6000602082840312156120ba578081fd5b81516112ea816125ab565b6000602082840312156120d6578081fd5b813567ffffffffffffffff8111156120ec578182fd5b8201601f810184136120fc578182fd5b6115d884823560208401611df4565b60006020828403121561211c578081fd5b813561ffff811681146112ea578182fd5b60006020828403121561213e578081fd5b5035919050565b6000815180845261215d8160208601602086016124e6565b601f01601f19169290920160200192915050565b6000845160206121848285838a016124e6565b8551918401916121978184848a016124e6565b85549201918390600281046001808316806121b357607f831692505b8583108114156121d157634e487b7160e01b88526022600452602488fd5b8080156121e557600181146121f657612222565b60ff19851688528388019550612222565b60008b815260209020895b8581101561221a5781548a820152908401908801612201565b505083880195505b50939b9a5050505050505050505050565b6001600160a01b038581168252841660208201526040810183905260806060820181905260009061226690830184612145565b9695505050505050565b6000602082526112ea6020830184612145565b6020808252602d908201527f4552433732313a2063616c6c6572206973206e6f7420746f6b656e206f776e6560408201526c1c881bdc88185c1c1c9bdd9959609a1b606082015260800190565b60208082526032908201527f4552433732313a207472616e7366657220746f206e6f6e20455243373231526560408201527131b2b4bb32b91034b6b83632b6b2b73a32b960711b606082015260800190565b60208082526025908201527f4552433732313a207472616e736665722066726f6d20696e636f72726563742060408201526437bbb732b960d91b606082015260800190565b60208082526022908201527f4e4f5420454e4f554748204e46545320415641494c41424c4520544f204d494e6040820152612a1760f11b606082015260800190565b60208082526026908201527f504c454153452053454e4420544845205245515549524544204554484552204160408201526526a7aaa72a1760d11b606082015260800190565b6020808252602c908201527f43414e2754204d494e54204d4f5245205448414e203130204e4654532050455260408201526b102a2920a729a0a1aa24a7a760a11b606082015260800190565b60208082526023908201527f594f552041524520424c41434b4c49535445442c20554e41424c4520544f204d60408201526212539560ea1b606082015260800190565b604051601f8201601f1916810167ffffffffffffffff811182821017156124a7576124a7612595565b604052919050565b600082198211156124c2576124c261257f565b500190565b60008160001904831182151516156124e1576124e161257f565b500290565b60005b838110156125015781810151838201526020016124e9565b8381111561117f5750506000910152565b6000816125215761252161257f565b506000190190565b60028104600182168061253d57607f821691505b6020821081141561255e57634e487b7160e01b600052602260045260246000fd5b50919050565b60006000198214156125785761257861257f565b5060010190565b634e487b7160e01b600052601160045260246000fd5b634e487b7160e01b600052604160045260246000fd5b6001600160e01b03198116811461140b57600080fdfea2646970667358221220ec7cf8d0a9d73ee158cddf3bc9378fa423b1dc9ff2eb1548e3c96153aefd4fda64736f6c63430008020033",
  "immutableReferences": {},
  "source": "// SPDX-License-Identifier: MIT\n\n/**\n    !Disclaimer!\n    These contracts have been used to create tutorials,\n    and was created for the purpose to teach people\n    how to create smart contracts on the blockchain.\n    please review this code on your own before using any of\n    the following code for production.\n    Creators and Developers will not be liable in any way if for the use \n    of the code. That being said, the code has been tested \n    to the best of the developers' knowledge to work as intended.\n*/\n\npragma solidity >=0.7.0 <0.9.0;\n\nimport \"@openzeppelin/contracts/token/ERC721/ERC721.sol\";\nimport \"@openzeppelin/contracts/access/Ownable.sol\";\nimport \"@openzeppelin/contracts/security/ReentrancyGuard.sol\";\n\ncontract CBAI is ERC721, Ownable, ReentrancyGuard {\n\n  using Strings for uint256;\n\n  string baseURI;\n  string public baseExtension = \".json\";\n  uint256 totalSupply;\n  uint256 currentSupply;\n  uint256 NFTCost;\n  mapping (address => uint256) whitelist;\n  mapping (address => uint256) blacklist;\n  bool isSaleActive = false;\n  bool isWhitelistEnabled = false;\n\n  constructor(string memory uri) ERC721(\"CBAI\", \"CBAI\") {\n    totalSupply = 10000;\n    currentSupply = 0;\n    NFTCost = 0.001 ether;\n    isSaleActive = false;\n    isWhitelistEnabled = false;\n    setBaseURI(uri);\n  }\n\n  function _baseURI() internal view virtual override returns (string memory) {\n    return baseURI;\n  }\n\n  function mint(uint256 amount) public payable {\n    require(msg.sender != address(0), \"ERC721Mint: INVALID_ADDRESS.\");\n    require(totalSupply >= currentSupply + amount, \"NOT ENOUGH NFTS AVAILABLE TO MINT.\");\n    require(amount <= 10, \"CAN'T MINT MORE THAN 10 NFTS PER TRANSACTION\");\n    require(blacklist[msg.sender] < 1, \"YOU ARE BLACKLISTED, UNABLE TO MINT\");\n    require(isSaleActive, \"SALE IS NOT ACTIVE\");\n\n    if(msg.sender != owner()) {\n      require(msg.value >= NFTCost * amount, \"PLEASE SEND THE REQUIRED ETHER AMOUNT.\");\n    }\n\n    for(uint256 i = 0; i < amount; i++) {\n      _safeMint(msg.sender, currentSupply + 1);\n      currentSupply++;\n    }\n  }\n\n  function whitelistMint(uint256 amount) public payable {\n    require(msg.sender != address(0), \"ERC721Mint: INVALID_ADDRESS.\");\n    require(whitelist[msg.sender] > 0, \"YOU ARE NOT IN THE WHITELIST OR ALREADY MINT THE MAXIMUM SLOTS\");\n    require(totalSupply >= currentSupply + amount, \"NOT ENOUGH NFTS AVAILABLE TO MINT.\");\n    require(amount <= 10, \"CAN'T MINT MORE THAN 10 NFTS PER TRANSACTION\");\n    require(blacklist[msg.sender] < 1, \"YOU ARE BLACKLISTED, UNABLE TO MINT\");\n    require(isWhitelistEnabled, \"WHITELIST IS NOT ACTIVE\");\n\n    if(msg.sender != owner()) {\n      require(msg.value >= NFTCost * amount, \"PLEASE SEND THE REQUIRED ETHER AMOUNT.\");\n    }\n\n    for(uint256 i = 0; i < amount; i++) {\n      _safeMint(msg.sender, currentSupply + 1);\n      currentSupply++;\n    }\n  }\n\n\n  function getTotalSupply() public view returns (uint256 supply) {\n    return totalSupply;\n  }\n\n  function getCurrentSupply() public view returns (uint256 supply) {\n    return currentSupply;\n  }\n\n  function tokenURI(uint256 tokenId) public view virtual override returns (string memory) {\n    require(_exists(tokenId), \"ERC721Metadata: URI query for nonexistent token\");\n    string memory currentBaseURI = _baseURI();\n    return bytes(currentBaseURI).length > 0 ? string(abi.encodePacked(currentBaseURI, tokenId.toString(), baseExtension)): \"\";\n  }\n\n  function setBaseURI(string memory _newBaseURI) public onlyOwner {\n    baseURI = _newBaseURI;\n  }\n\n  function setNFTCost(uint256 newNFTCost) public onlyOwner {\n    NFTCost = newNFTCost;\n  }\n\n  function getBaseURI() view public returns (string memory) {\n    return baseURI;\n  }\n\n  function getNFTCost() view public returns (uint256) {\n    return NFTCost;\n  }\n\n  function getPublicSaleIsActive() view public returns (bool) {\n    return isSaleActive;\n  }\n\n  function setBaseExtension(string memory _newBaseExtension) public onlyOwner {\n    baseExtension = _newBaseExtension;\n  }\n\n  function batchAddToWhitelist(address[] memory addresses) external onlyOwner {\n    for (uint256 i = 0; i < addresses.length; i++) {\n      whitelist[addresses[i]] = 1;\n    }\n  }\n\n  function singleAddToWhitelist(address newAddress) external onlyOwner {\n    whitelist[newAddress] = 1;\n  }\n\n  function batchRemoveFromWhitelist(address [] memory addresses) external onlyOwner {\n    for (uint256 i = 0; i < addresses.length; i++) {\n      whitelist[addresses[i]]--;\n    }\n  }\n\n  function singleRemoveFromWhitelist(address addressToRemove) external onlyOwner {\n    whitelist[addressToRemove]--;\n  }\n\n  function batchAddToBlacklist(address[] memory addresses) external onlyOwner {\n    for (uint256 i = 0; i < addresses.length; i++) {\n      blacklist[addresses[i]] = 1;\n    }\n  }\n\n  function singleAddToBlacklist(address newAddress) external onlyOwner {\n    blacklist[newAddress] = 1;\n  }\n\n  function batchRemoveFromBlacklist(address [] memory addresses) external onlyOwner {\n    for (uint256 i = 0; i < addresses.length; i++) {\n      blacklist[addresses[i]]--;\n    }\n  }\n\n  function singleRemoveFromBlacklist(address addressToRemove) external onlyOwner {\n    blacklist[addressToRemove]--;\n  }\n\n  function adminIncreaseMaxSupply(uint16 newMaxSupply) external onlyOwner {\n    totalSupply = newMaxSupply;\n  }\n\n  function adminManageSaleState(bool saleState) external onlyOwner {\n    isSaleActive = saleState;\n  }\n\n  function adminManageWhitelistState(bool whitelistState) external onlyOwner {\n    isWhitelistEnabled = whitelistState;\n  }\n\n  function withdraw() public payable onlyOwner nonReentrant{\n    // This will pay Devs 5% of the initial sale.\n    // You can remove this if you want, or keep it in to support Devs and his channel.\n    // =============================================================================\n    //(bool hs, ) = payable(0x9d871aFa04E734654A168222B5837e096888D3c6).call{value: address(this).balance * 5 / 100}(\"\");\n    //require(hs);\n    // =============================================================================\n    \n    // This will payout the owner 95% of the contract balance.\n    // Do not remove this otherwise you will not be able to withdraw the funds.\n    // =============================================================================\n    (bool os, ) = payable(owner()).call{value: address(this).balance}(\"\");\n    require(os);\n    // =============================================================================\n  }\n}",
  "sourcePath": "/Users/StevenGarcia/GitHub-Repositories/cbai_repo/contracts/CBAI.sol",
  "compiler": {
    "name": "solc",
    "version": "0.8.2+commit.661d1103.Emscripten.clang"
  },
  "schemaVersion": "3.4.13",
  "updatedAt": "2023-05-06T03:36:53.980Z",
  "networkType": "ethereum",
  "devdoc": {
    "kind": "dev",
    "methods": {
      "approve(address,uint256)": {
        "details": "See {IERC721-approve}."
      },
      "balanceOf(address)": {
        "details": "See {IERC721-balanceOf}."
      },
      "getApproved(uint256)": {
        "details": "See {IERC721-getApproved}."
      },
      "isApprovedForAll(address,address)": {
        "details": "See {IERC721-isApprovedForAll}."
      },
      "name()": {
        "details": "See {IERC721Metadata-name}."
      },
      "owner()": {
        "details": "Returns the address of the current owner."
      },
      "ownerOf(uint256)": {
        "details": "See {IERC721-ownerOf}."
      },
      "renounceOwnership()": {
        "details": "Leaves the contract without owner. It will not be possible to call `onlyOwner` functions anymore. Can only be called by the current owner. NOTE: Renouncing ownership will leave the contract without an owner, thereby removing any functionality that is only available to the owner."
      },
      "safeTransferFrom(address,address,uint256)": {
        "details": "See {IERC721-safeTransferFrom}."
      },
      "safeTransferFrom(address,address,uint256,bytes)": {
        "details": "See {IERC721-safeTransferFrom}."
      },
      "setApprovalForAll(address,bool)": {
        "details": "See {IERC721-setApprovalForAll}."
      },
      "supportsInterface(bytes4)": {
        "details": "See {IERC165-supportsInterface}."
      },
      "symbol()": {
        "details": "See {IERC721Metadata-symbol}."
      },
      "tokenURI(uint256)": {
        "details": "See {IERC721Metadata-tokenURI}."
      },
      "transferFrom(address,address,uint256)": {
        "details": "See {IERC721-transferFrom}."
      },
      "transferOwnership(address)": {
        "details": "Transfers ownership of the contract to a new account (`newOwner`). Can only be called by the current owner."
      }
    },
    "version": 1
  },
  "userdoc": {
    "kind": "user",
    "methods": {},
    "version": 1
  }
}